{
  "abi": [
    {
      "inputs": [
        {
          "internalType": "address",
          "name": "proxyAdmin",
          "type": "address"
        },
        {
          "internalType": "address",
          "name": "seawaterAdmin",
          "type": "address"
        },
        {
          "internalType": "address",
          "name": "nftManager",
          "type": "address"
        },
        {
          "internalType": "contract ISeawaterExecutorSwap",
          "name": "executorSwap",
          "type": "address"
        },
        {
          "internalType": "contract ISeawaterExecutorPosition",
          "name": "executorPosition",
          "type": "address"
        },
        {
          "internalType": "contract ISeawaterExecutorAdmin",
          "name": "executorAdmin",
          "type": "address"
        },
        {
          "internalType": "contract ISeawaterExecutorFallback",
          "name": "executorFallback",
          "type": "address"
        },
        {
          "internalType": "address",
          "name": "fusdc",
          "type": "address"
        }
      ],
      "stateMutability": "nonpayable",
      "type": "constructor"
    },
    {
      "anonymous": false,
      "inputs": [
        {
          "indexed": true,
          "internalType": "uint256",
          "name": "id",
          "type": "uint256"
        },
        {
          "indexed": true,
          "internalType": "address",
          "name": "owner",
          "type": "address"
        }
      ],
      "name": "BurnPosition",
      "type": "event"
    },
    {
      "anonymous": false,
      "inputs": [
        {
          "indexed": true,
          "internalType": "uint256",
          "name": "id",
          "type": "uint256"
        },
        {
          "indexed": true,
          "internalType": "address",
          "name": "pool",
          "type": "address"
        },
        {
          "indexed": true,
          "internalType": "address",
          "name": "to",
          "type": "address"
        },
        {
          "indexed": false,
          "internalType": "uint128",
          "name": "amount0",
          "type": "uint128"
        },
        {
          "indexed": false,
          "internalType": "uint128",
          "name": "amount1",
          "type": "uint128"
        }
      ],
      "name": "CollectFees",
      "type": "event"
    },
    {
      "anonymous": false,
      "inputs": [
        {
          "indexed": true,
          "internalType": "address",
          "name": "pool",
          "type": "address"
        },
        {
          "indexed": true,
          "internalType": "address",
          "name": "to",
          "type": "address"
        },
        {
          "indexed": false,
          "internalType": "uint128",
          "name": "amount0",
          "type": "uint128"
        },
        {
          "indexed": false,
          "internalType": "uint128",
          "name": "amount1",
          "type": "uint128"
        }
      ],
      "name": "CollectProtocolFees",
      "type": "event"
    },
    {
      "anonymous": false,
      "inputs": [
        {
          "indexed": true,
          "internalType": "uint256",
          "name": "id",
          "type": "uint256"
        },
        {
          "indexed": true,
          "internalType": "address",
          "name": "owner",
          "type": "address"
        },
        {
          "indexed": true,
          "internalType": "address",
          "name": "pool",
          "type": "address"
        },
        {
          "indexed": false,
          "internalType": "int32",
          "name": "lower",
          "type": "int32"
        },
        {
          "indexed": false,
          "internalType": "int32",
          "name": "upper",
          "type": "int32"
        }
      ],
      "name": "MintPosition",
      "type": "event"
    },
    {
      "anonymous": false,
      "inputs": [
        {
          "indexed": true,
          "internalType": "address",
          "name": "token",
          "type": "address"
        },
        {
          "indexed": true,
          "internalType": "uint32",
          "name": "fee",
          "type": "uint32"
        },
        {
          "indexed": true,
          "internalType": "uint256",
          "name": "price",
          "type": "uint256"
        }
      ],
      "name": "NewPool",
      "type": "event"
    },
    {
      "anonymous": false,
      "inputs": [
        {
          "indexed": true,
          "internalType": "address",
          "name": "user",
          "type": "address"
        },
        {
          "indexed": true,
          "internalType": "address",
          "name": "from",
          "type": "address"
        },
        {
          "indexed": true,
          "internalType": "address",
          "name": "to",
          "type": "address"
        },
        {
          "indexed": false,
          "internalType": "uint256",
          "name": "amountIn",
          "type": "uint256"
        },
        {
          "indexed": false,
          "internalType": "uint256",
          "name": "amountOut",
          "type": "uint256"
        }
      ],
      "name": "Swap",
      "type": "event"
    },
    {
      "anonymous": false,
      "inputs": [
        {
          "indexed": true,
          "internalType": "address",
          "name": "from",
          "type": "address"
        },
        {
          "indexed": true,
          "internalType": "address",
          "name": "to",
          "type": "address"
        },
        {
          "indexed": true,
          "internalType": "uint256",
          "name": "id",
          "type": "uint256"
        }
      ],
      "name": "TransferPosition",
      "type": "event"
    },
    {
      "anonymous": false,
      "inputs": [
        {
          "indexed": true,
          "internalType": "uint256",
          "name": "id",
          "type": "uint256"
        },
        {
          "indexed": false,
          "internalType": "int128",
          "name": "delta",
          "type": "int128"
        }
      ],
      "name": "UpdatePositionLiquidity",
      "type": "event"
    },
    {
      "inputs": [
        {
          "internalType": "uint256",
          "name": "",
          "type": "uint256"
        }
      ],
      "name": "burnPosition",
      "outputs": [],
      "stateMutability": "nonpayable",
      "type": "function"
    },
    {
      "inputs": [
        {
          "internalType": "address",
          "name": "pool",
          "type": "address"
        },
        {
          "internalType": "uint256",
          "name": "id",
          "type": "uint256"
        },
        {
          "internalType": "uint128",
          "name": "amount0",
          "type": "uint128"
        },
        {
          "internalType": "uint128",
          "name": "amount1",
          "type": "uint128"
        }
      ],
      "name": "collect",
      "outputs": [
        {
          "internalType": "uint128",
          "name": "",
          "type": "uint128"
        },
        {
          "internalType": "uint128",
          "name": "",
          "type": "uint128"
        }
      ],
      "stateMutability": "nonpayable",
      "type": "function"
    },
    {
      "inputs": [
        {
          "internalType": "address",
          "name": "",
          "type": "address"
        },
        {
          "internalType": "uint128",
          "name": "",
          "type": "uint128"
        },
        {
          "internalType": "uint128",
          "name": "",
          "type": "uint128"
        }
      ],
      "name": "collectProtocol",
      "outputs": [
        {
          "internalType": "uint128",
          "name": "",
          "type": "uint128"
        },
        {
          "internalType": "uint128",
          "name": "",
          "type": "uint128"
        }
      ],
      "stateMutability": "nonpayable",
      "type": "function"
    },
    {
      "inputs": [
        {
          "internalType": "address",
          "name": "",
          "type": "address"
        },
        {
          "internalType": "uint256",
          "name": "",
          "type": "uint256"
        },
        {
          "internalType": "uint32",
          "name": "",
          "type": "uint32"
        },
        {
          "internalType": "uint8",
          "name": "",
          "type": "uint8"
        },
        {
          "internalType": "uint128",
          "name": "",
          "type": "uint128"
        }
      ],
      "name": "init",
      "outputs": [],
      "stateMutability": "nonpayable",
      "type": "function"
    },
    {
      "inputs": [
        {
          "internalType": "address",
          "name": "",
          "type": "address"
        },
        {
          "internalType": "int32",
          "name": "",
          "type": "int32"
        },
        {
          "internalType": "int32",
          "name": "",
          "type": "int32"
        }
      ],
      "name": "mintPosition",
      "outputs": [],
      "stateMutability": "nonpayable",
      "type": "function"
    },
    {
      "inputs": [
        {
          "internalType": "address",
          "name": "",
          "type": "address"
        }
      ],
      "name": "positionBalance",
      "outputs": [
        {
          "internalType": "uint256",
          "name": "",
          "type": "uint256"
        }
      ],
      "stateMutability": "nonpayable",
      "type": "function"
    },
    {
      "inputs": [
        {
          "internalType": "uint256",
          "name": "",
          "type": "uint256"
        }
      ],
      "name": "positionOwner",
      "outputs": [
        {
          "internalType": "address",
          "name": "",
          "type": "address"
        }
      ],
      "stateMutability": "nonpayable",
      "type": "function"
    },
    {
      "inputs": [
        {
          "internalType": "address",
          "name": "",
          "type": "address"
        },
        {
          "internalType": "bool",
          "name": "",
          "type": "bool"
        },
        {
          "internalType": "int256",
          "name": "",
          "type": "int256"
        },
        {
          "internalType": "uint256",
          "name": "",
          "type": "uint256"
        }
      ],
      "name": "swap",
      "outputs": [
        {
          "internalType": "int256",
          "name": "",
          "type": "int256"
        },
        {
          "internalType": "int256",
          "name": "",
          "type": "int256"
        }
      ],
      "stateMutability": "nonpayable",
      "type": "function"
    },
    {
      "inputs": [
        {
          "internalType": "address",
          "name": "",
          "type": "address"
        },
        {
          "internalType": "address",
          "name": "",
          "type": "address"
        },
        {
          "internalType": "uint256",
          "name": "",
          "type": "uint256"
        },
        {
          "internalType": "uint256",
          "name": "",
          "type": "uint256"
        }
      ],
      "name": "swap2ExactIn",
      "outputs": [
        {
          "internalType": "uint256",
          "name": "",
          "type": "uint256"
        },
        {
          "internalType": "uint256",
          "name": "",
          "type": "uint256"
        }
      ],
      "stateMutability": "nonpayable",
      "type": "function"
    },
    {
      "inputs": [
        {
          "internalType": "address",
          "name": "token",
          "type": "address"
        },
        {
          "internalType": "uint256",
          "name": "amountIn",
          "type": "uint256"
        },
        {
          "internalType": "uint256",
          "name": "minOut",
          "type": "uint256"
        }
      ],
      "name": "swapIn",
      "outputs": [
        {
          "internalType": "int256",
          "name": "",
          "type": "int256"
        },
        {
          "internalType": "int256",
          "name": "",
          "type": "int256"
        }
      ],
      "stateMutability": "nonpayable",
      "type": "function"
    },
    {
      "inputs": [
        {
          "internalType": "address",
          "name": "token",
          "type": "address"
        },
        {
          "internalType": "uint256",
          "name": "amountIn",
          "type": "uint256"
        },
        {
          "internalType": "uint256",
          "name": "minOut",
          "type": "uint256"
        }
      ],
      "name": "swapOut",
      "outputs": [
        {
          "internalType": "int256",
          "name": "",
          "type": "int256"
        },
        {
          "internalType": "int256",
          "name": "",
          "type": "int256"
        }
      ],
      "stateMutability": "nonpayable",
      "type": "function"
    },
    {
      "inputs": [
        {
          "internalType": "uint256",
          "name": "",
          "type": "uint256"
        },
        {
          "internalType": "address",
          "name": "",
          "type": "address"
        },
        {
          "internalType": "address",
          "name": "",
          "type": "address"
        }
      ],
      "name": "transferPosition",
      "outputs": [],
      "stateMutability": "nonpayable",
      "type": "function"
    },
    {
      "inputs": [
        {
          "internalType": "contract ISeawaterExecutorSwap",
          "name": "executorSwap",
          "type": "address"
        },
        {
          "internalType": "contract ISeawaterExecutorPosition",
          "name": "executorPosition",
          "type": "address"
        },
        {
          "internalType": "contract ISeawaterExecutorAdmin",
          "name": "executorAdmin",
          "type": "address"
        },
        {
          "internalType": "contract ISeawaterExecutorFallback",
          "name": "executorFallback",
          "type": "address"
        }
      ],
      "name": "updateExecutors",
      "outputs": [],
      "stateMutability": "nonpayable",
      "type": "function"
    },
    {
      "inputs": [
        {
          "internalType": "address",
          "name": "pool",
          "type": "address"
        },
        {
          "internalType": "uint256",
          "name": "id",
          "type": "uint256"
        },
        {
          "internalType": "int128",
          "name": "delta",
          "type": "int128"
        }
      ],
      "name": "updatePosition",
      "outputs": [
        {
          "internalType": "int256",
          "name": "",
          "type": "int256"
        },
        {
          "internalType": "int256",
          "name": "",
          "type": "int256"
        }
      ],
      "stateMutability": "nonpayable",
      "type": "function"
    },
    {
      "inputs": [
        {
          "internalType": "address",
          "name": "newAdmin",
          "type": "address"
        }
      ],
      "name": "updateProxyAdmin",
      "outputs": [],
      "stateMutability": "nonpayable",
      "type": "function"
    }
  ],
  "bytecode": {
    "object": "0x60806040523480156200005e5760405162461bcd60e51b815260206004820152602260248201527f45746865722073656e7420746f206e6f6e2d70617961626c652066756e637469604482019081526137b760f11b6064830152608482fd5b50604051620013ce380380620013ce83398101604081905262000081916200037a565b6200008c886200018d565b6200009a85858585620001f4565b600080620000a762000329565b6040516001600160a01b0385811660248301528b811660448301528a81166064830152919091169060840160408051601f198184030181529181526020820180516001600160e01b031663c043d15b60e01b1790525162000109919062000493565b600060405180830381855af49150503d806000811462000146576040519150601f19603f3d011682016040523d82523d6000602084013e6200014b565b606091505b50915091508181906200017c5760405162461bcd60e51b8152600401620001739190620004b1565b60405180910390fd5b50505050505050505050506200050e565b80620001d3620001bf60017fdfd6b2a695a9a2448c8c317669015a93e35dd154c29d011b7d533ae1dcabc1d6620004e6565b60001b6200035a60201b620006741760201c565b80546001600160a01b0319166001600160a01b039290921691909117905550565b8362000226620001bf60017fb27456616f8c77c635d3551b8179f6887795e920c5c4421a6fa3c3c76fc90fa9620004e6565b80546001600160a01b0319166001600160a01b03929092169190911790558262000276620001bf60017f75711a1f12071de4ad9b405fd0234f84fcd9d494050d3a5169de3ad4fd942477620004e6565b80546001600160a01b0319166001600160a01b039290921691909117905581620002b5620001bf6001600080516020620013ae833981519152620004e6565b80546001600160a01b0319166001600160a01b03929092169190911790558062000305620001bf60017fa77145850668b2edbbe1c458388a99e3dca3d62b8335520225dc4d03b2e2bfe1620004e6565b80546001600160a01b0319166001600160a01b039290921691909117905550505050565b60006200034b620001bf6001600080516020620013ae833981519152620004e6565b546001600160a01b0316919050565b90565b80516001600160a01b03811681146200037557600080fd5b919050565b600080600080600080600080610100898b031215620003e35760405162461bcd60e51b815260206004820152602260248201527f414249206465636f64696e673a207475706c65206461746120746f6f2073686f6044820152611c9d60f21b6064820152608481fd5b620003ee896200035d565b9750620003fe60208a016200035d565b96506200040e60408a016200035d565b95506200041e60608a016200035d565b94506200042e60808a016200035d565b93506200043e60a08a016200035d565b92506200044e60c08a016200035d565b91506200045e60e08a016200035d565b90509295985092959890939650565b60005b838110156200048a57818101518382015260200162000470565b50506000910152565b60008251620004a78184602087016200046d565b9190910192915050565b6020815260008251806020840152620004d28160408501602087016200046d565b601f01601f19169190910160400192915050565b818103818111156200050857634e487b7160e01b600052601160045260246000fd5b92915050565b610e90806200051e6000396000f3fe608060405234801561005d5760405162461bcd60e51b815260206004820152602260248201527f45746865722073656e7420746f206e6f6e2d70617961626c652066756e637469604482019081526137b760f11b6064830152608482fd5b50600436106101425760003560e01c80639b8da366116100e4578063b3060d36116100b3578063b3060d36146102bd578063bb48cd3a146102e3578063df5bda3e146102f6578063e83c30491461030957610142565b80639b8da36614610276578063a0e4eb3c14610289578063a27847191461029c578063abb1db2a146102af57610142565b80635f439da3116101205780635f439da3146101fc5780636f1a366d1461021d578063739dc0cf1461023057806385b667291461024357610142565b806314b24575146101a757806338ca63bc146101bc57806341e3cc58146101cf575b60405162461bcd60e51b815260206004820152603560248201527f436f6e747261637420646f6573206e6f7420686176652066616c6c6261636b2060448201908152746e6f7220726563656976652066756e6374696f6e7360581b6064830152608482fd5b6101ba6101b5366004610a5d565b61031c565b005b6101ba6101ca366004610ad3565b610333565b6101e26101dd366004610aef565b610341565b604080519283526020830191909152015b60405180910390f35b61020f61020a366004610b4a565b610358565b6040519081526020016101f3565b6101e261022b366004610b92565b61036c565b6101e261023e366004610b92565b6104fc565b610256610251366004610bca565b610638565b604080516001600160801b039384168152929091166020830152016101f3565b6101ba610284366004610c09565b610646565b610256610297366004610c68565b6106d4565b61020f6102aa366004610cba565b6106e2565b6101e26101dd366004610cda565b6102cb6102aa366004610ad3565b6040516001600160a01b0390911681526020016101f3565b6101ba6102f1366004610cba565b6106f4565b6101ba610304366004610d13565b610776565b6101e2610317366004610d58565b610786565b61032c610327610794565b6107d3565b5050505050565b61033e6103276107f7565b50565b60008061034f610327610827565b94509492505050565b60006103656103276107f7565b9392505050565b60008060008061037a610827565b6040516001600160a01b03898116602483015260016044830152606482018990526000196084830152919091169060a40160408051601f198184030181529181526020820180516001600160e01b03166355d8ed9560e11b179052516103e09190610dbd565b600060405180830381855af49150503d806000811461041b576040519150601f19603f3d011682016040523d82523d6000602084013e610420565b606091505b509150915081819061044e5760405162461bcd60e51b81526004016104459190610dd9565b60405180910390fd5b50600080828060200190518101906104669190610e0c565b604080518a8152602081018390529294509092507f8f625808101edebebffef0b278c55bd926a8c663264ae278f229b518608987db910160405180910390a1868112156104ec5760405162461bcd60e51b81526020600482015260146024820152736d696e206f7574206e6f7420726561636865642160601b6044820152606401610445565b909450925050505b935093915050565b60008060008061050a610827565b6040516001600160a01b03898116602483015260006044830152606482018990526000196084830152919091169060a40160408051601f198184030181529181526020820180516001600160e01b03166355d8ed9560e11b179052516105709190610dbd565b600060405180830381855af49150503d80600081146105ab576040519150601f19603f3d011682016040523d82523d6000602084013e6105b0565b606091505b50915091508181906105d55760405162461bcd60e51b81526004016104459190610dd9565b50600080828060200190518101906105ed9190610e0c565b91509150868112156104ec5760405162461bcd60e51b81526020600482015260146024820152736d696e206f7574206e6f7420726561636865642160601b6044820152606401610445565b6000806104f4610327610794565b61067761067460017fdfd6b2a695a9a2448c8c317669015a93e35dd154c29d011b7d533ae1dcabc1d6610e33565b90565b546001600160a01b031633146106c25760405162461bcd60e51b815260206004820152601060248201526f37b7363c90383937bc3c9030b236b4b760811b6044820152606401610445565b6106ce84848484610857565b50505050565b60008061034f6103276107f7565b60006106ef6103276107f7565b919050565b61072261067460017fdfd6b2a695a9a2448c8c317669015a93e35dd154c29d011b7d533ae1dcabc1d6610e33565b546001600160a01b0316331461076d5760405162461bcd60e51b815260206004820152601060248201526f37b7363c90383937bc3c9030b236b4b760811b6044820152606401610445565b61033e81610991565b6107816103276107f7565b505050565b6000806104f46103276107f7565b60006107c461067460017f344c13190645d452a52856ca1efc42b3609893d92b93219c8820b76f3aa11289610e33565b546001600160a01b0316919050565b3660008037600080366000845af43d6000803e8080156107f2573d6000f35b3d6000fd5b60006107c461067460017f75711a1f12071de4ad9b405fd0234f84fcd9d494050d3a5169de3ad4fd942477610e33565b60006107c461067460017fb27456616f8c77c635d3551b8179f6887795e920c5c4421a6fa3c3c76fc90fa9610e33565b8361088661067460017fb27456616f8c77c635d3551b8179f6887795e920c5c4421a6fa3c3c76fc90fa9610e33565b80546001600160a01b0319166001600160a01b0392909216919091179055826108d361067460017f75711a1f12071de4ad9b405fd0234f84fcd9d494050d3a5169de3ad4fd942477610e33565b80546001600160a01b0319166001600160a01b03929092169190911790558161092061067460017f344c13190645d452a52856ca1efc42b3609893d92b93219c8820b76f3aa11289610e33565b80546001600160a01b0319166001600160a01b03929092169190911790558061096d61067460017fa77145850668b2edbbe1c458388a99e3dca3d62b8335520225dc4d03b2e2bfe1610e33565b80546001600160a01b0319166001600160a01b039290921691909117905550505050565b806109c061067460017fdfd6b2a695a9a2448c8c317669015a93e35dd154c29d011b7d533ae1dcabc1d6610e33565b80546001600160a01b0319166001600160a01b039290921691909117905550565b60405162461bcd60e51b815260206004820152602260248201527f414249206465636f64696e673a207475706c65206461746120746f6f2073686f6044820152611c9d60f21b6064820152608481fd5b6001600160a01b038116811461033e57600080fd5b80356001600160801b03811681146106ef57600080fd5b600080600080600060a08688031215610a7857610a786109e1565b8535610a8381610a31565b945060208601359350604086013563ffffffff81168114610aa357600080fd5b9250606086013560ff81168114610ab957600080fd5b9150610ac760808701610a46565b90509295509295909350565b600060208284031215610ae857610ae86109e1565b5035919050565b60008060008060808587031215610b0857610b086109e1565b8435610b1381610a31565b93506020850135610b2381610a31565b93969395505050506040820135916060013590565b8035600381900b81146106ef57600080fd5b600080600060608486031215610b6257610b626109e1565b8335610b6d81610a31565b9250610b7b60208501610b38565b9150610b8960408501610b38565b90509250925092565b600080600060608486031215610baa57610baa6109e1565b8335610bb581610a31565b95602085013595506040909401359392505050565b600080600060608486031215610be257610be26109e1565b8335610bed81610a31565b9250610bfb60208501610a46565b9150610b8960408501610a46565b60008060008060808587031215610c2257610c226109e1565b8435610c2d81610a31565b93506020850135610c3d81610a31565b92506040850135610c4d81610a31565b91506060850135610c5d81610a31565b939692955090935050565b60008060008060808587031215610c8157610c816109e1565b8435610c8c81610a31565b935060208501359250610ca160408601610a46565b9150610caf60608601610a46565b905092959194509250565b600060208284031215610ccf57610ccf6109e1565b813561036581610a31565b60008060008060808587031215610cf357610cf36109e1565b8435610cfe81610a31565b935060208501358015158114610b2357600080fd5b600080600060608486031215610d2b57610d2b6109e1565b833592506020840135610d3d81610a31565b91506040840135610d4d81610a31565b809150509250925092565b600080600060608486031215610d7057610d706109e1565b8335610d7b81610a31565b9250602084013591506040840135600f81900b8114610d4d57600080fd5b60005b83811015610db4578181015183820152602001610d9c565b50506000910152565b60008251610dcf818460208701610d99565b9190910192915050565b6020815260008251806020840152610df8816040850160208701610d99565b601f01601f19169190910160400192915050565b60008060408385031215610e2257610e226109e1565b505080516020909101519092909150565b81810381811115610e5457634e487b7160e01b600052601160045260246000fd5b9291505056fea264697066735822122071ae1fa30dc2694808ed4c3b6fd40b44d7f2baf482471e382c2345b6a2058e6c64736f6c63430008100033344c13190645d452a52856ca1efc42b3609893d92b93219c8820b76f3aa11289",
    "linkReferences": {}
  },
  "methodIdentifiers": {
    "burnPosition(uint256)": "38ca63bc",
    "collect(address,uint256,uint128,uint128)": "a0e4eb3c",
    "collectProtocol(address,uint128,uint128)": "85b66729",
    "init(address,uint256,uint32,uint8,uint128)": "14b24575",
    "mintPosition(address,int32,int32)": "5f439da3",
    "positionBalance(address)": "a2784719",
    "positionOwner(uint256)": "b3060d36",
    "swap(address,bool,int256,uint256)": "abb1db2a",
    "swap2ExactIn(address,address,uint256,uint256)": "41e3cc58",
    "swapIn(address,uint256,uint256)": "6f1a366d",
    "swapOut(address,uint256,uint256)": "739dc0cf",
    "transferPosition(uint256,address,address)": "df5bda3e",
    "updateExecutors(address,address,address,address)": "9b8da366",
    "updatePosition(address,uint256,int128)": "e83c3049",
    "updateProxyAdmin(address)": "bb48cd3a"
  },
  "id": 3
}